{
  "_format": "hh-sol-artifact-1",
  "contractName": "ProductRegistry",
  "sourceName": "contracts/ProductRegistry.sol",
  "abi": [
    {
      "anonymous": false,
      "inputs": [
        {
          "indexed": true,
          "internalType": "string",
          "name": "productId",
          "type": "string"
        },
        {
          "indexed": false,
          "internalType": "string",
          "name": "name",
          "type": "string"
        },
        {
          "indexed": false,
          "internalType": "string",
          "name": "manufacturer",
          "type": "string"
        },
        {
          "indexed": false,
          "internalType": "address",
          "name": "owner",
          "type": "address"
        },
        {
          "indexed": false,
          "internalType": "uint256",
          "name": "timestamp",
          "type": "uint256"
        }
      ],
      "name": "ProductCreated",
      "type": "event"
    },
    {
      "anonymous": false,
      "inputs": [
        {
          "indexed": true,
          "internalType": "string",
          "name": "productId",
          "type": "string"
        },
        {
          "indexed": false,
          "internalType": "string",
          "name": "name",
          "type": "string"
        },
        {
          "indexed": false,
          "internalType": "string",
          "name": "manufacturer",
          "type": "string"
        },
        {
          "indexed": false,
          "internalType": "uint256",
          "name": "timestamp",
          "type": "uint256"
        }
      ],
      "name": "ProductUpdated",
      "type": "event"
    },
    {
      "inputs": [
        {
          "internalType": "string",
          "name": "productId",
          "type": "string"
        },
        {
          "internalType": "string",
          "name": "name",
          "type": "string"
        },
        {
          "internalType": "string",
          "name": "manufacturer",
          "type": "string"
        },
        {
          "internalType": "string",
          "name": "description",
          "type": "string"
        },
        {
          "internalType": "string",
          "name": "productType",
          "type": "string"
        },
        {
          "internalType": "string",
          "name": "model",
          "type": "string"
        }
      ],
      "name": "createProduct",
      "outputs": [],
      "stateMutability": "nonpayable",
      "type": "function"
    },
    {
      "inputs": [
        {
          "internalType": "string",
          "name": "productId",
          "type": "string"
        }
      ],
      "name": "deactivateProduct",
      "outputs": [],
      "stateMutability": "nonpayable",
      "type": "function"
    },
    {
      "inputs": [
        {
          "internalType": "address",
          "name": "manufacturer",
          "type": "address"
        }
      ],
      "name": "getManufacturerProducts",
      "outputs": [
        {
          "internalType": "string[]",
          "name": "",
          "type": "string[]"
        }
      ],
      "stateMutability": "view",
      "type": "function"
    },
    {
      "inputs": [
        {
          "internalType": "string",
          "name": "productId",
          "type": "string"
        }
      ],
      "name": "getProduct",
      "outputs": [
        {
          "internalType": "string",
          "name": "name",
          "type": "string"
        },
        {
          "internalType": "string",
          "name": "manufacturer",
          "type": "string"
        },
        {
          "internalType": "string",
          "name": "description",
          "type": "string"
        },
        {
          "internalType": "string",
          "name": "productType",
          "type": "string"
        },
        {
          "internalType": "string",
          "name": "model",
          "type": "string"
        },
        {
          "internalType": "uint256",
          "name": "createdAt",
          "type": "uint256"
        },
        {
          "internalType": "uint256",
          "name": "updatedAt",
          "type": "uint256"
        },
        {
          "internalType": "bool",
          "name": "isActive",
          "type": "bool"
        },
        {
          "internalType": "address",
          "name": "owner",
          "type": "address"
        }
      ],
      "stateMutability": "view",
      "type": "function"
    },
    {
      "inputs": [
        {
          "internalType": "address",
          "name": "",
          "type": "address"
        },
        {
          "internalType": "uint256",
          "name": "",
          "type": "uint256"
        }
      ],
      "name": "manufacturerProducts",
      "outputs": [
        {
          "internalType": "string",
          "name": "",
          "type": "string"
        }
      ],
      "stateMutability": "view",
      "type": "function"
    },
    {
      "inputs": [
        {
          "internalType": "string",
          "name": "",
          "type": "string"
        }
      ],
      "name": "products",
      "outputs": [
        {
          "internalType": "string",
          "name": "name",
          "type": "string"
        },
        {
          "internalType": "string",
          "name": "manufacturer",
          "type": "string"
        },
        {
          "internalType": "string",
          "name": "description",
          "type": "string"
        },
        {
          "internalType": "string",
          "name": "productType",
          "type": "string"
        },
        {
          "internalType": "string",
          "name": "model",
          "type": "string"
        },
        {
          "internalType": "uint256",
          "name": "createdAt",
          "type": "uint256"
        },
        {
          "internalType": "uint256",
          "name": "updatedAt",
          "type": "uint256"
        },
        {
          "internalType": "bool",
          "name": "isActive",
          "type": "bool"
        },
        {
          "internalType": "address",
          "name": "owner",
          "type": "address"
        }
      ],
      "stateMutability": "view",
      "type": "function"
    },
    {
      "inputs": [
        {
          "internalType": "string",
          "name": "productId",
          "type": "string"
        },
        {
          "internalType": "string",
          "name": "name",
          "type": "string"
        },
        {
          "internalType": "string",
          "name": "manufacturer",
          "type": "string"
        },
        {
          "internalType": "string",
          "name": "description",
          "type": "string"
        },
        {
          "internalType": "string",
          "name": "productType",
          "type": "string"
        },
        {
          "internalType": "string",
          "name": "model",
          "type": "string"
        }
      ],
      "name": "updateProduct",
      "outputs": [],
      "stateMutability": "nonpayable",
      "type": "function"
    }
  ],
  "bytecode": "0x608060405234801561001057600080fd5b50611d89806100206000396000f3fe608060405234801561001057600080fd5b506004361061007d5760003560e01c806355a53f061161005b57806355a53f06146100f25780635fe2b9ce1461010e57806368111cce1461013e5780637382e17a146101765761007d565b80630186a423146100825780630b84680d146100ba5780632f9f7989146100d6575b600080fd5b61009c600480360381019061009791906112a3565b6101a6565b6040516100b1999897969594939291906113e0565b60405180910390f35b6100d460048036038101906100cf9190611490565b6104df565b005b6100f060048036038101906100eb91906112a3565b61073f565b005b61010c60048036038101906101079190611490565b6108b5565b005b6101286004803603810190610123919061161d565b610b49565b604051610135919061165d565b60405180910390f35b610158600480360381019061015391906112a3565b610c02565b60405161016d999897969594939291906113e0565b60405180910390f35b610190600480360381019061018b919061167f565b611031565b60405161019d91906117b8565b60405180910390f35b6000818051602081018201805184825260208301602085012081835280955050505050506000915090508060000180546101df90611809565b80601f016020809104026020016040519081016040528092919081815260200182805461020b90611809565b80156102585780601f1061022d57610100808354040283529160200191610258565b820191906000526020600020905b81548152906001019060200180831161023b57829003601f168201915b50505050509080600101805461026d90611809565b80601f016020809104026020016040519081016040528092919081815260200182805461029990611809565b80156102e65780601f106102bb576101008083540402835291602001916102e6565b820191906000526020600020905b8154815290600101906020018083116102c957829003601f168201915b5050505050908060020180546102fb90611809565b80601f016020809104026020016040519081016040528092919081815260200182805461032790611809565b80156103745780601f1061034957610100808354040283529160200191610374565b820191906000526020600020905b81548152906001019060200180831161035757829003601f168201915b50505050509080600301805461038990611809565b80601f01602080910402602001604051908101604052809291908181526020018280546103b590611809565b80156104025780601f106103d757610100808354040283529160200191610402565b820191906000526020600020905b8154815290600101906020018083116103e557829003601f168201915b50505050509080600401805461041790611809565b80601f016020809104026020016040519081016040528092919081815260200182805461044390611809565b80156104905780601f1061046557610100808354040283529160200191610490565b820191906000526020600020905b81548152906001019060200180831161047357829003601f168201915b5050505050908060050154908060060154908060070160009054906101000a900460ff16908060070160019054906101000a900473ffffffffffffffffffffffffffffffffffffffff16905089565b853373ffffffffffffffffffffffffffffffffffffffff166000826040516105079190611876565b908152602001604051809103902060070160019054906101000a900473ffffffffffffffffffffffffffffffffffffffff1673ffffffffffffffffffffffffffffffffffffffff161461058f576040517f08c379a0000000000000000000000000000000000000000000000000000000008152600401610586906118d9565b60405180910390fd5b600080886040516105a09190611876565b908152602001604051809103902060050154116105f2576040517f08c379a00000000000000000000000000000000000000000000000000000000081526004016105e990611945565b60405180910390fd5b6000876040516106029190611876565b908152602001604051809103902060070160009054906101000a900460ff16610660576040517f08c379a0000000000000000000000000000000000000000000000000000000008152600401610657906119b1565b60405180910390fd5b600080886040516106719190611876565b90815260200160405180910390209050868160000190816106929190611b7d565b50858160010190816106a49190611b7d565b50848160020190816106b69190611b7d565b50838160030190816106c89190611b7d565b50828160040190816106da9190611b7d565b50428160060181905550876040516106f29190611876565b60405180910390207fa5dc66eb6128a83f690ed648445a97394e2b66104797ce5bc44e97dd6353310a88884260405161072d93929190611c4f565b60405180910390a25050505050505050565b803373ffffffffffffffffffffffffffffffffffffffff166000826040516107679190611876565b908152602001604051809103902060070160019054906101000a900473ffffffffffffffffffffffffffffffffffffffff1673ffffffffffffffffffffffffffffffffffffffff16146107ef576040517f08c379a00000000000000000000000000000000000000000000000000000000081526004016107e6906118d9565b60405180910390fd5b600080836040516108009190611876565b90815260200160405180910390206005015411610852576040517f08c379a000000000000000000000000000000000000000000000000000000000815260040161084990611945565b60405180910390fd5b600080836040516108639190611876565b908152602001604051809103902060070160006101000a81548160ff0219169083151502179055504260008360405161089c9190611876565b9081526020016040518091039020600601819055505050565b600080876040516108c69190611876565b90815260200160405180910390206005015414610918576040517f08c379a000000000000000000000000000000000000000000000000000000000815260040161090f90611ce0565b60405180910390fd5b6040518061012001604052808681526020018581526020018481526020018381526020018281526020014281526020014281526020016001151581526020013373ffffffffffffffffffffffffffffffffffffffff168152506000876040516109819190611876565b908152602001604051809103902060008201518160000190816109a49190611b7d565b5060208201518160010190816109ba9190611b7d565b5060408201518160020190816109d09190611b7d565b5060608201518160030190816109e69190611b7d565b5060808201518160040190816109fc9190611b7d565b5060a0820151816005015560c0820151816006015560e08201518160070160006101000a81548160ff0219169083151502179055506101008201518160070160016101000a81548173ffffffffffffffffffffffffffffffffffffffff021916908373ffffffffffffffffffffffffffffffffffffffff160217905550905050600160003373ffffffffffffffffffffffffffffffffffffffff1673ffffffffffffffffffffffffffffffffffffffff16815260200190815260200160002086908060018154018082558091505060019003906000526020600020016000909190919091509081610aed9190611b7d565b5085604051610afc9190611876565b60405180910390207fd350eb4d031393f3e5176fb5b36c610346b96a6b90c2f18aa5f1f63f8363645e86863342604051610b399493929190611d00565b60405180910390a2505050505050565b60016020528160005260406000208181548110610b6557600080fd5b90600052602060002001600091509150508054610b8190611809565b80601f0160208091040260200160405190810160405280929190818152602001828054610bad90611809565b8015610bfa5780601f10610bcf57610100808354040283529160200191610bfa565b820191906000526020600020905b815481529060010190602001808311610bdd57829003601f168201915b505050505081565b60608060608060606000806000806000808b604051610c219190611876565b908152602001604051809103902060405180610120016040529081600082018054610c4b90611809565b80601f0160208091040260200160405190810160405280929190818152602001828054610c7790611809565b8015610cc45780601f10610c9957610100808354040283529160200191610cc4565b820191906000526020600020905b815481529060010190602001808311610ca757829003601f168201915b50505050508152602001600182018054610cdd90611809565b80601f0160208091040260200160405190810160405280929190818152602001828054610d0990611809565b8015610d565780601f10610d2b57610100808354040283529160200191610d56565b820191906000526020600020905b815481529060010190602001808311610d3957829003601f168201915b50505050508152602001600282018054610d6f90611809565b80601f0160208091040260200160405190810160405280929190818152602001828054610d9b90611809565b8015610de85780601f10610dbd57610100808354040283529160200191610de8565b820191906000526020600020905b815481529060010190602001808311610dcb57829003601f168201915b50505050508152602001600382018054610e0190611809565b80601f0160208091040260200160405190810160405280929190818152602001828054610e2d90611809565b8015610e7a5780601f10610e4f57610100808354040283529160200191610e7a565b820191906000526020600020905b815481529060010190602001808311610e5d57829003601f168201915b50505050508152602001600482018054610e9390611809565b80601f0160208091040260200160405190810160405280929190818152602001828054610ebf90611809565b8015610f0c5780601f10610ee157610100808354040283529160200191610f0c565b820191906000526020600020905b815481529060010190602001808311610eef57829003601f168201915b5050505050815260200160058201548152602001600682015481526020016007820160009054906101000a900460ff161515151581526020016007820160019054906101000a900473ffffffffffffffffffffffffffffffffffffffff1673ffffffffffffffffffffffffffffffffffffffff1673ffffffffffffffffffffffffffffffffffffffff1681525050905060008160a0015111610fe3576040517f08c379a0000000000000000000000000000000000000000000000000000000008152600401610fda90611945565b60405180910390fd5b806000015181602001518260400151836060015184608001518560a001518660c001518760e00151886101000151995099509950995099509950995099509950509193959799909294969850565b6060600160008373ffffffffffffffffffffffffffffffffffffffff1673ffffffffffffffffffffffffffffffffffffffff168152602001908152602001600020805480602002602001604051908101604052809291908181526020016000905b8282101561113e5783829060005260206000200180546110b190611809565b80601f01602080910402602001604051908101604052809291908181526020018280546110dd90611809565b801561112a5780601f106110ff5761010080835404028352916020019161112a565b820191906000526020600020905b81548152906001019060200180831161110d57829003601f168201915b505050505081526020019060010190611092565b505050509050919050565b6000604051905090565b600080fd5b600080fd5b600080fd5b600080fd5b6000601f19601f8301169050919050565b7f4e487b7100000000000000000000000000000000000000000000000000000000600052604160045260246000fd5b6111b082611167565b810181811067ffffffffffffffff821117156111cf576111ce611178565b5b80604052505050565b60006111e2611149565b90506111ee82826111a7565b919050565b600067ffffffffffffffff82111561120e5761120d611178565b5b61121782611167565b9050602081019050919050565b82818337600083830152505050565b6000611246611241846111f3565b6111d8565b90508281526020810184848401111561126257611261611162565b5b61126d848285611224565b509392505050565b600082601f83011261128a5761128961115d565b5b813561129a848260208601611233565b91505092915050565b6000602082840312156112b9576112b8611153565b5b600082013567ffffffffffffffff8111156112d7576112d6611158565b5b6112e384828501611275565b91505092915050565b600081519050919050565b600082825260208201905092915050565b60005b8381101561132657808201518184015260208101905061130b565b60008484015250505050565b600061133d826112ec565b61134781856112f7565b9350611357818560208601611308565b61136081611167565b840191505092915050565b6000819050919050565b61137e8161136b565b82525050565b60008115159050919050565b61139981611384565b82525050565b600073ffffffffffffffffffffffffffffffffffffffff82169050919050565b60006113ca8261139f565b9050919050565b6113da816113bf565b82525050565b60006101208201905081810360008301526113fb818c611332565b9050818103602083015261140f818b611332565b90508181036040830152611423818a611332565b905081810360608301526114378189611332565b9050818103608083015261144b8188611332565b905061145a60a0830187611375565b61146760c0830186611375565b61147460e0830185611390565b6114826101008301846113d1565b9a9950505050505050505050565b60008060008060008060c087890312156114ad576114ac611153565b5b600087013567ffffffffffffffff8111156114cb576114ca611158565b5b6114d789828a01611275565b965050602087013567ffffffffffffffff8111156114f8576114f7611158565b5b61150489828a01611275565b955050604087013567ffffffffffffffff81111561152557611524611158565b5b61153189828a01611275565b945050606087013567ffffffffffffffff81111561155257611551611158565b5b61155e89828a01611275565b935050608087013567ffffffffffffffff81111561157f5761157e611158565b5b61158b89828a01611275565b92505060a087013567ffffffffffffffff8111156115ac576115ab611158565b5b6115b889828a01611275565b9150509295509295509295565b6115ce816113bf565b81146115d957600080fd5b50565b6000813590506115eb816115c5565b92915050565b6115fa8161136b565b811461160557600080fd5b50565b600081359050611617816115f1565b92915050565b6000806040838503121561163457611633611153565b5b6000611642858286016115dc565b925050602061165385828601611608565b9150509250929050565b600060208201905081810360008301526116778184611332565b905092915050565b60006020828403121561169557611694611153565b5b60006116a3848285016115dc565b91505092915050565b600081519050919050565b600082825260208201905092915050565b6000819050602082019050919050565b600082825260208201905092915050565b60006116f4826112ec565b6116fe81856116d8565b935061170e818560208601611308565b61171781611167565b840191505092915050565b600061172e83836116e9565b905092915050565b6000602082019050919050565b600061174e826116ac565b61175881856116b7565b93508360208202850161176a856116c8565b8060005b858110156117a657848403895281516117878582611722565b945061179283611736565b925060208a0199505060018101905061176e565b50829750879550505050505092915050565b600060208201905081810360008301526117d28184611743565b905092915050565b7f4e487b7100000000000000000000000000000000000000000000000000000000600052602260045260246000fd5b6000600282049050600182168061182157607f821691505b602082108103611834576118336117da565b5b50919050565b600081905092915050565b6000611850826112ec565b61185a818561183a565b935061186a818560208601611308565b80840191505092915050565b60006118828284611845565b915081905092915050565b7f4e6f7420617574686f72697a6564000000000000000000000000000000000000600082015250565b60006118c3600e836112f7565b91506118ce8261188d565b602082019050919050565b600060208201905081810360008301526118f2816118b6565b9050919050565b7f50726f6475637420646f6573206e6f7420657869737400000000000000000000600082015250565b600061192f6016836112f7565b915061193a826118f9565b602082019050919050565b6000602082019050818103600083015261195e81611922565b9050919050565b7f50726f64756374206973206e6f74206163746976650000000000000000000000600082015250565b600061199b6015836112f7565b91506119a682611965565b602082019050919050565b600060208201905081810360008301526119ca8161198e565b9050919050565b60008190508160005260206000209050919050565b60006020601f8301049050919050565b600082821b905092915050565b600060088302611a337fffffffffffffffffffffffffffffffffffffffffffffffffffffffffffffffff826119f6565b611a3d86836119f6565b95508019841693508086168417925050509392505050565b6000819050919050565b6000611a7a611a75611a708461136b565b611a55565b61136b565b9050919050565b6000819050919050565b611a9483611a5f565b611aa8611aa082611a81565b848454611a03565b825550505050565b600090565b611abd611ab0565b611ac8818484611a8b565b505050565b5b81811015611aec57611ae1600082611ab5565b600181019050611ace565b5050565b601f821115611b3157611b02816119d1565b611b0b846119e6565b81016020851015611b1a578190505b611b2e611b26856119e6565b830182611acd565b50505b505050565b600082821c905092915050565b6000611b5460001984600802611b36565b1980831691505092915050565b6000611b6d8383611b43565b9150826002028217905092915050565b611b86826112ec565b67ffffffffffffffff811115611b9f57611b9e611178565b5b611ba98254611809565b611bb4828285611af0565b600060209050601f831160018114611be75760008415611bd5578287015190505b611bdf8582611b61565b865550611c47565b601f198416611bf5866119d1565b60005b82811015611c1d57848901518255600182019150602085019450602081019050611bf8565b86831015611c3a5784890151611c36601f891682611b43565b8355505b6001600288020188555050505b505050505050565b60006060820190508181036000830152611c698186611332565b90508181036020830152611c7d8185611332565b9050611c8c6040830184611375565b949350505050565b7f50726f6475637420616c72656164792065786973747300000000000000000000600082015250565b6000611cca6016836112f7565b9150611cd582611c94565b602082019050919050565b60006020820190508181036000830152611cf981611cbd565b9050919050565b60006080820190508181036000830152611d1a8187611332565b90508181036020830152611d2e8186611332565b9050611d3d60408301856113d1565b611d4a6060830184611375565b9594505050505056fea2646970667358221220e71d98a4a666646e11f539eafbbf7ebaadb6dc0ec08ef9b7aacac0e16d0efdb264736f6c63430008130033",
  "linkReferences": {},
  "deployedLinkReferences": {}
}